:020000040000FA
:100000000F010A0ED36E936A956A070E816A836A9E
:1000100014EC00F030EC00F0D1EC00F06BEC00F0F0
:10002000D1EC00F00AEF00F08390D1EC00F0010E6B
:10003000816ECDEC00F0380E816ECDEC00F00F0E2D
:10004000816ECDEC00F0060E816ECDEC00F00C0E52
:10005000816ECDEC00F03C0E816ECDEC00F0120014
:10006000C3EC00F0480EB8EC00F0650EB8EC00F000
:100070006C0EB8EC00F06C0EB8EC00F06F0EB8EC43
:1000800000F0200EB8EC00F0440EB8EC00F0610E69
:10009000B8EC00F06E0EB8EC00F0690EB8EC00F0B1
:1000A000650EB8EC00F06C0EB8EC00F0210EB8EC68
:1000B00000F0BDEC00F02D0EB8EC00F0490EB8ECED
:1000C00000F0760EB8EC00F0610EB8EC00F06E0EA9
:1000D000B8EC00F01200C3EC00F0480EB8EC00F0F1
:1000E000690EB8EC00F0200EB8EC00F06D0EB8EC24
:1000F00000F0790EB8EC00F0200EB8EC00F06C0EB9
:10010000B8EC00F06F0EB8EC00F0760EB8EC00F032
:10011000650EB8EC00F0730EB8EC00F02C0EB8ECE5
:1001200000F0BDEC00F0540EB8EC00F0410EB8EC5D
:1001300000F04D0EB8EC00F04D0EB8EC00F0590E8A
:10014000B8EC00F0200EB8EC00F0260EB8EC00F091
:10015000200EB8EC00F0440EB8EC00F0410EB8EC04
:1001600000F04E0EB8EC00F0450EB8EC00F01200B6
:100170008380816ECDEC00F012008390C00E816E02
:10018000CDEC00F012008390010E816ECDEC00F0FA
:10019000020E816ECDEC00F012008382000083928B
:1001A0001200050ED66EF2A4D3EF00F0F294120006
:0201B00000004D
:020000040030CA
:0100000020DF
:0100010008F6
:0100020019E4
:010003001EDE
:010005008179
:010006008178
:00000001FF
